{
  "_format": "hh-sol-artifact-1",
  "contractName": "CertificateNFT",
  "sourceName": "contracts/CertificateNFT.sol",
  "abi": [
    {
      "inputs": [],
      "stateMutability": "nonpayable",
      "type": "constructor"
    },
    {
      "anonymous": false,
      "inputs": [
        {
          "indexed": true,
          "internalType": "address",
          "name": "owner",
          "type": "address"
        },
        {
          "indexed": true,
          "internalType": "address",
          "name": "approved",
          "type": "address"
        },
        {
          "indexed": true,
          "internalType": "uint256",
          "name": "tokenId",
          "type": "uint256"
        }
      ],
      "name": "Approval",
      "type": "event"
    },
    {
      "anonymous": false,
      "inputs": [
        {
          "indexed": true,
          "internalType": "address",
          "name": "owner",
          "type": "address"
        },
        {
          "indexed": true,
          "internalType": "address",
          "name": "operator",
          "type": "address"
        },
        {
          "indexed": false,
          "internalType": "bool",
          "name": "approved",
          "type": "bool"
        }
      ],
      "name": "ApprovalForAll",
      "type": "event"
    },
    {
      "anonymous": false,
      "inputs": [
        {
          "indexed": true,
          "internalType": "uint256",
          "name": "tokenId",
          "type": "uint256"
        },
        {
          "indexed": true,
          "internalType": "address",
          "name": "to",
          "type": "address"
        },
        {
          "indexed": true,
          "internalType": "address",
          "name": "issuer",
          "type": "address"
        },
        {
          "indexed": false,
          "internalType": "string",
          "name": "uri",
          "type": "string"
        }
      ],
      "name": "CertificateMinted",
      "type": "event"
    },
    {
      "anonymous": false,
      "inputs": [
        {
          "indexed": true,
          "internalType": "uint256",
          "name": "tokenId",
          "type": "uint256"
        },
        {
          "indexed": true,
          "internalType": "address",
          "name": "revokedBy",
          "type": "address"
        }
      ],
      "name": "CertificateRevoked",
      "type": "event"
    },
    {
      "anonymous": false,
      "inputs": [
        {
          "indexed": true,
          "internalType": "address",
          "name": "institution",
          "type": "address"
        },
        {
          "indexed": false,
          "internalType": "bool",
          "name": "approved",
          "type": "bool"
        }
      ],
      "name": "InstitutionApprovalUpdated",
      "type": "event"
    },
    {
      "anonymous": false,
      "inputs": [
        {
          "indexed": true,
          "internalType": "address",
          "name": "previousOwner",
          "type": "address"
        },
        {
          "indexed": true,
          "internalType": "address",
          "name": "newOwner",
          "type": "address"
        }
      ],
      "name": "OwnershipTransferred",
      "type": "event"
    },
    {
      "anonymous": false,
      "inputs": [
        {
          "indexed": true,
          "internalType": "address",
          "name": "from",
          "type": "address"
        },
        {
          "indexed": true,
          "internalType": "address",
          "name": "to",
          "type": "address"
        },
        {
          "indexed": true,
          "internalType": "uint256",
          "name": "tokenId",
          "type": "uint256"
        }
      ],
      "name": "Transfer",
      "type": "event"
    },
    {
      "inputs": [
        {
          "internalType": "address",
          "name": "to",
          "type": "address"
        },
        {
          "internalType": "uint256",
          "name": "tokenId",
          "type": "uint256"
        }
      ],
      "name": "approve",
      "outputs": [],
      "stateMutability": "nonpayable",
      "type": "function"
    },
    {
      "inputs": [
        {
          "internalType": "address",
          "name": "institution",
          "type": "address"
        },
        {
          "internalType": "bool",
          "name": "approved",
          "type": "bool"
        }
      ],
      "name": "approveInstitution",
      "outputs": [],
      "stateMutability": "nonpayable",
      "type": "function"
    },
    {
      "inputs": [
        {
          "internalType": "address",
          "name": "owner",
          "type": "address"
        }
      ],
      "name": "balanceOf",
      "outputs": [
        {
          "internalType": "uint256",
          "name": "",
          "type": "uint256"
        }
      ],
      "stateMutability": "view",
      "type": "function"
    },
    {
      "inputs": [
        {
          "internalType": "uint256",
          "name": "tokenId",
          "type": "uint256"
        }
      ],
      "name": "getApproved",
      "outputs": [
        {
          "internalType": "address",
          "name": "",
          "type": "address"
        }
      ],
      "stateMutability": "view",
      "type": "function"
    },
    {
      "inputs": [
        {
          "internalType": "uint256",
          "name": "tokenId",
          "type": "uint256"
        }
      ],
      "name": "getCertificate",
      "outputs": [
        {
          "internalType": "address",
          "name": "owner_",
          "type": "address"
        },
        {
          "internalType": "address",
          "name": "issuer",
          "type": "address"
        },
        {
          "internalType": "string",
          "name": "uri",
          "type": "string"
        },
        {
          "internalType": "bool",
          "name": "revoked",
          "type": "bool"
        }
      ],
      "stateMutability": "view",
      "type": "function"
    },
    {
      "inputs": [
        {
          "internalType": "address",
          "name": "owner",
          "type": "address"
        },
        {
          "internalType": "address",
          "name": "operator",
          "type": "address"
        }
      ],
      "name": "isApprovedForAll",
      "outputs": [
        {
          "internalType": "bool",
          "name": "",
          "type": "bool"
        }
      ],
      "stateMutability": "view",
      "type": "function"
    },
    {
      "inputs": [
        {
          "internalType": "address",
          "name": "institution",
          "type": "address"
        }
      ],
      "name": "isInstitutionApproved",
      "outputs": [
        {
          "internalType": "bool",
          "name": "",
          "type": "bool"
        }
      ],
      "stateMutability": "view",
      "type": "function"
    },
    {
      "inputs": [
        {
          "internalType": "uint256",
          "name": "tokenId",
          "type": "uint256"
        }
      ],
      "name": "isValid",
      "outputs": [
        {
          "internalType": "bool",
          "name": "",
          "type": "bool"
        }
      ],
      "stateMutability": "view",
      "type": "function"
    },
    {
      "inputs": [
        {
          "internalType": "address",
          "name": "to",
          "type": "address"
        },
        {
          "internalType": "string",
          "name": "uri",
          "type": "string"
        }
      ],
      "name": "mintCertificate",
      "outputs": [
        {
          "internalType": "uint256",
          "name": "",
          "type": "uint256"
        }
      ],
      "stateMutability": "nonpayable",
      "type": "function"
    },
    {
      "inputs": [],
      "name": "name",
      "outputs": [
        {
          "internalType": "string",
          "name": "",
          "type": "string"
        }
      ],
      "stateMutability": "view",
      "type": "function"
    },
    {
      "inputs": [],
      "name": "owner",
      "outputs": [
        {
          "internalType": "address",
          "name": "",
          "type": "address"
        }
      ],
      "stateMutability": "view",
      "type": "function"
    },
    {
      "inputs": [
        {
          "internalType": "uint256",
          "name": "tokenId",
          "type": "uint256"
        }
      ],
      "name": "ownerOf",
      "outputs": [
        {
          "internalType": "address",
          "name": "",
          "type": "address"
        }
      ],
      "stateMutability": "view",
      "type": "function"
    },
    {
      "inputs": [],
      "name": "renounceOwnership",
      "outputs": [],
      "stateMutability": "nonpayable",
      "type": "function"
    },
    {
      "inputs": [
        {
          "internalType": "uint256",
          "name": "tokenId",
          "type": "uint256"
        }
      ],
      "name": "revokeCertificate",
      "outputs": [],
      "stateMutability": "nonpayable",
      "type": "function"
    },
    {
      "inputs": [
        {
          "internalType": "address",
          "name": "from",
          "type": "address"
        },
        {
          "internalType": "address",
          "name": "to",
          "type": "address"
        },
        {
          "internalType": "uint256",
          "name": "tokenId",
          "type": "uint256"
        }
      ],
      "name": "safeTransferFrom",
      "outputs": [],
      "stateMutability": "nonpayable",
      "type": "function"
    },
    {
      "inputs": [
        {
          "internalType": "address",
          "name": "from",
          "type": "address"
        },
        {
          "internalType": "address",
          "name": "to",
          "type": "address"
        },
        {
          "internalType": "uint256",
          "name": "tokenId",
          "type": "uint256"
        },
        {
          "internalType": "bytes",
          "name": "data",
          "type": "bytes"
        }
      ],
      "name": "safeTransferFrom",
      "outputs": [],
      "stateMutability": "nonpayable",
      "type": "function"
    },
    {
      "inputs": [
        {
          "internalType": "address",
          "name": "operator",
          "type": "address"
        },
        {
          "internalType": "bool",
          "name": "approved",
          "type": "bool"
        }
      ],
      "name": "setApprovalForAll",
      "outputs": [],
      "stateMutability": "nonpayable",
      "type": "function"
    },
    {
      "inputs": [
        {
          "internalType": "bytes4",
          "name": "interfaceId",
          "type": "bytes4"
        }
      ],
      "name": "supportsInterface",
      "outputs": [
        {
          "internalType": "bool",
          "name": "",
          "type": "bool"
        }
      ],
      "stateMutability": "view",
      "type": "function"
    },
    {
      "inputs": [],
      "name": "symbol",
      "outputs": [
        {
          "internalType": "string",
          "name": "",
          "type": "string"
        }
      ],
      "stateMutability": "view",
      "type": "function"
    },
    {
      "inputs": [
        {
          "internalType": "uint256",
          "name": "tokenId",
          "type": "uint256"
        }
      ],
      "name": "tokenURI",
      "outputs": [
        {
          "internalType": "string",
          "name": "",
          "type": "string"
        }
      ],
      "stateMutability": "view",
      "type": "function"
    },
    {
      "inputs": [
        {
          "internalType": "address",
          "name": "from",
          "type": "address"
        },
        {
          "internalType": "address",
          "name": "to",
          "type": "address"
        },
        {
          "internalType": "uint256",
          "name": "tokenId",
          "type": "uint256"
        }
      ],
      "name": "transferFrom",
      "outputs": [],
      "stateMutability": "nonpayable",
      "type": "function"
    },
    {
      "inputs": [
        {
          "internalType": "address",
          "name": "newOwner",
          "type": "address"
        }
      ],
      "name": "transferOwnership",
      "outputs": [],
      "stateMutability": "nonpayable",
      "type": "function"
    }
  ],
  "bytecode": "0x60806040523480156200001157600080fd5b506040518060400160405280600e81526020017f43657274696669636174654e46540000000000000000000000000000000000008152506040518060400160405280600481526020017f434552540000000000000000000000000000000000000000000000000000000081525081600090816200008f919062000412565b508060019081620000a1919062000412565b505050620000c4620000b8620000ca60201b60201c565b620000d260201b60201c565b620004f9565b600033905090565b6000600760009054906101000a900473ffffffffffffffffffffffffffffffffffffffff16905081600760006101000a81548173ffffffffffffffffffffffffffffffffffffffff021916908373ffffffffffffffffffffffffffffffffffffffff1602179055508173ffffffffffffffffffffffffffffffffffffffff168173ffffffffffffffffffffffffffffffffffffffff167f8be0079c531659141344cd1fd0a4f28419497f9722a3daafe3b4186f6b6457e060405160405180910390a35050565b600081519050919050565b7f4e487b7100000000000000000000000000000000000000000000000000000000600052604160045260246000fd5b7f4e487b7100000000000000000000000000000000000000000000000000000000600052602260045260246000fd5b600060028204905060018216806200021a57607f821691505b60208210810362000230576200022f620001d2565b5b50919050565b60008190508160005260206000209050919050565b60006020601f8301049050919050565b600082821b905092915050565b6000600883026200029a7fffffffffffffffffffffffffffffffffffffffffffffffffffffffffffffffff826200025b565b620002a686836200025b565b95508019841693508086168417925050509392505050565b6000819050919050565b6000819050919050565b6000620002f3620002ed620002e784620002be565b620002c8565b620002be565b9050919050565b6000819050919050565b6200030f83620002d2565b620003276200031e82620002fa565b84845462000268565b825550505050565b600090565b6200033e6200032f565b6200034b81848462000304565b505050565b5b8181101562000373576200036760008262000334565b60018101905062000351565b5050565b601f821115620003c2576200038c8162000236565b62000397846200024b565b81016020851015620003a7578190505b620003bf620003b6856200024b565b83018262000350565b50505b505050565b600082821c905092915050565b6000620003e760001984600802620003c7565b1980831691505092915050565b6000620004028383620003d4565b9150826002028217905092915050565b6200041d8262000198565b67ffffffffffffffff811115620004395762000438620001a3565b5b62000445825462000201565b6200045282828562000377565b600060209050601f8311600181146200048a576000841562000475578287015190505b620004818582620003f4565b865550620004f1565b601f1984166200049a8662000236565b60005b82811015620004c4578489015182556001820191506020850194506020810190506200049d565b86831015620004e45784890151620004e0601f891682620003d4565b8355505b6001600288020188555050505b505050505050565b613a3380620005096000396000f3fe608060405234801561001057600080fd5b50600436106101425760003560e01c8063715018a6116100b8578063b88d4fde1161007c578063b88d4fde14610376578063ba22e89914610392578063c87b56dd146103c2578063e985e9c5146103f2578063f2fde38b14610422578063f577a5001461043e57610142565b8063715018a6146102f85780638c422bba146103025780638da5cb5b1461031e57806395d89b411461033c578063a22cb4651461035a57610142565b8063095ea7b31161010a578063095ea7b31461021157806323b872dd1461022d57806342842e0e1461024957806351640fee146102655780636352211e1461029857806370a08231146102c857610142565b806301ffc9a71461014757806306f5497e1461017757806306fdde03146101935780630712249f146101b1578063081812fc146101e1575b600080fd5b610161600480360381019061015c91906124fe565b61046e565b60405161016e9190612546565b60405180910390f35b610191600480360381019061018c9190612597565b610550565b005b61019b6106f6565b6040516101a89190612654565b60405180910390f35b6101cb60048036038101906101c69190612739565b610788565b6040516101d891906127a8565b60405180910390f35b6101fb60048036038101906101f69190612597565b610aea565b60405161020891906127d2565b60405180910390f35b61022b600480360381019061022691906127ed565b610b30565b005b6102476004803603810190610242919061282d565b610c47565b005b610263600480360381019061025e919061282d565b610ca7565b005b61027f600480360381019061027a9190612597565b610cc7565b60405161028f9493929190612880565b60405180910390f35b6102b260048036038101906102ad9190612597565b610e24565b6040516102bf91906127d2565b60405180910390f35b6102e260048036038101906102dd91906128cc565b610eaa565b6040516102ef91906127a8565b60405180910390f35b610300610f61565b005b61031c60048036038101906103179190612925565b610f75565b005b610326611095565b60405161033391906127d2565b60405180910390f35b6103446110bf565b6040516103519190612654565b60405180910390f35b610374600480360381019061036f9190612925565b611151565b005b610390600480360381019061038b9190612a95565b611167565b005b6103ac60048036038101906103a791906128cc565b6111c9565b6040516103b99190612546565b60405180910390f35b6103dc60048036038101906103d79190612597565b61121f565b6040516103e99190612654565b60405180910390f35b61040c60048036038101906104079190612b18565b611331565b6040516104199190612546565b60405180910390f35b61043c600480360381019061043791906128cc565b6113c5565b005b61045860048036038101906104539190612597565b611448565b6040516104659190612546565b60405180910390f35b60007f80ac58cd000000000000000000000000000000000000000000000000000000007bffffffffffffffffffffffffffffffffffffffffffffffffffffffff1916827bffffffffffffffffffffffffffffffffffffffffffffffffffffffff1916148061053957507f5b5e139f000000000000000000000000000000000000000000000000000000007bffffffffffffffffffffffffffffffffffffffffffffffffffffffff1916827bffffffffffffffffffffffffffffffffffffffffffffffffffffffff1916145b80610549575061054882611487565b5b9050919050565b610559816114f1565b6000600a600083815260200190815260200160002090508060020160009054906101000a900460ff16156105c2576040517f08c379a00000000000000000000000000000000000000000000000000000000081526004016105b990612ba4565b60405180910390fd5b8060000160009054906101000a900473ffffffffffffffffffffffffffffffffffffffff1673ffffffffffffffffffffffffffffffffffffffff163373ffffffffffffffffffffffffffffffffffffffff1614806106525750610623611095565b73ffffffffffffffffffffffffffffffffffffffff163373ffffffffffffffffffffffffffffffffffffffff16145b610691576040517f08c379a000000000000000000000000000000000000000000000000000000000815260040161068890612c10565b60405180910390fd5b60018160020160006101000a81548160ff0219169083151502179055503373ffffffffffffffffffffffffffffffffffffffff16827f325c62e70cfaa61cf0709d9607ea9d8451b235297c4b47c65ff6a6449c9faca460405160405180910390a35050565b60606000805461070590612c5f565b80601f016020809104026020016040519081016040528092919081815260200182805461073190612c5f565b801561077e5780601f106107535761010080835404028352916020019161077e565b820191906000526020600020905b81548152906001019060200180831161076157829003601f168201915b5050505050905090565b6000610793336111c9565b6107d2576040517f08c379a00000000000000000000000000000000000000000000000000000000081526004016107c990612cdc565b60405180910390fd5b600073ffffffffffffffffffffffffffffffffffffffff168473ffffffffffffffffffffffffffffffffffffffff1603610841576040517f08c379a000000000000000000000000000000000000000000000000000000000815260040161083890612d48565b60405180910390fd5b60008383604051602001610856929190612d98565b604051602081830303815290604052805190602001209050600b600082815260200190815260200160002060009054906101000a900460ff16156108cf576040517f08c379a00000000000000000000000000000000000000000000000000000000081526004016108c690612dfd565b60405180910390fd5b6108d9600861153c565b60006108e56008611552565b90506108f18682611560565b61093f8186868080601f016020809104026020016040519081016040528093929190818152602001838380828437600081840152601f19601f8201169050808301925050505050505061157e565b60405180606001604052803373ffffffffffffffffffffffffffffffffffffffff16815260200186868080601f016020809104026020016040519081016040528093929190818152602001838380828437600081840152601f19601f82011690508083019250505050505050815260200160001515815250600a600083815260200190815260200160002060008201518160000160006101000a81548173ffffffffffffffffffffffffffffffffffffffff021916908373ffffffffffffffffffffffffffffffffffffffff1602179055506020820151816001019081610a269190612fc9565b5060408201518160020160006101000a81548160ff0219169083151502179055509050506001600b600084815260200190815260200160002060006101000a81548160ff0219169083151502179055503373ffffffffffffffffffffffffffffffffffffffff168673ffffffffffffffffffffffffffffffffffffffff16827f12644ce7a7c24279219a9b62022bda85e1656aa406b6f183eb6a9f0bac7d98758888604051610ad69291906130c8565b60405180910390a480925050509392505050565b6000610af5826114f1565b6004600083815260200190815260200160002060009054906101000a900473ffffffffffffffffffffffffffffffffffffffff169050919050565b6000610b3b82610e24565b90508073ffffffffffffffffffffffffffffffffffffffff168373ffffffffffffffffffffffffffffffffffffffff1603610bab576040517f08c379a0000000000000000000000000000000000000000000000000000000008152600401610ba29061315e565b60405180910390fd5b8073ffffffffffffffffffffffffffffffffffffffff16610bca6115eb565b73ffffffffffffffffffffffffffffffffffffffff161480610bf95750610bf881610bf36115eb565b611331565b5b610c38576040517f08c379a0000000000000000000000000000000000000000000000000000000008152600401610c2f906131f0565b60405180910390fd5b610c4283836115f3565b505050565b610c58610c526115eb565b826116ac565b610c97576040517f08c379a0000000000000000000000000000000000000000000000000000000008152600401610c8e90613282565b60405180910390fd5b610ca2838383611741565b505050565b610cc283838360405180602001604052806000815250611167565b505050565b60008060606000610cd7856114f1565b6000600a60008781526020019081526020016000206040518060600160405290816000820160009054906101000a900473ffffffffffffffffffffffffffffffffffffffff1673ffffffffffffffffffffffffffffffffffffffff1673ffffffffffffffffffffffffffffffffffffffff168152602001600182018054610d5d90612c5f565b80601f0160208091040260200160405190810160405280929190818152602001828054610d8990612c5f565b8015610dd65780601f10610dab57610100808354040283529160200191610dd6565b820191906000526020600020905b815481529060010190602001808311610db957829003601f168201915b505050505081526020016002820160009054906101000a900460ff1615151515815250509050610e0586610e24565b8160000151826020015183604001519450945094509450509193509193565b600080610e3083611a3a565b9050600073ffffffffffffffffffffffffffffffffffffffff168173ffffffffffffffffffffffffffffffffffffffff1603610ea1576040517f08c379a0000000000000000000000000000000000000000000000000000000008152600401610e98906132ee565b60405180910390fd5b80915050919050565b60008073ffffffffffffffffffffffffffffffffffffffff168273ffffffffffffffffffffffffffffffffffffffff1603610f1a576040517f08c379a0000000000000000000000000000000000000000000000000000000008152600401610f1190613380565b60405180910390fd5b600360008373ffffffffffffffffffffffffffffffffffffffff1673ffffffffffffffffffffffffffffffffffffffff168152602001908152602001600020549050919050565b610f69611a77565b610f736000611af5565b565b610f7d611a77565b600073ffffffffffffffffffffffffffffffffffffffff168273ffffffffffffffffffffffffffffffffffffffff1603610fec576040517f08c379a0000000000000000000000000000000000000000000000000000000008152600401610fe3906133ec565b60405180910390fd5b80600960008473ffffffffffffffffffffffffffffffffffffffff1673ffffffffffffffffffffffffffffffffffffffff16815260200190815260200160002060006101000a81548160ff0219169083151502179055508173ffffffffffffffffffffffffffffffffffffffff167f3f3b420344192f0e84e2a272a2d14889cd7e2cdabdd99c0f9542bd3fb5ba5862826040516110899190612546565b60405180910390a25050565b6000600760009054906101000a900473ffffffffffffffffffffffffffffffffffffffff16905090565b6060600180546110ce90612c5f565b80601f01602080910402602001604051908101604052809291908181526020018280546110fa90612c5f565b80156111475780601f1061111c57610100808354040283529160200191611147565b820191906000526020600020905b81548152906001019060200180831161112a57829003601f168201915b5050505050905090565b61116361115c6115eb565b8383611bbb565b5050565b6111786111726115eb565b836116ac565b6111b7576040517f08c379a00000000000000000000000000000000000000000000000000000000081526004016111ae90613282565b60405180910390fd5b6111c384848484611d27565b50505050565b6000600960008373ffffffffffffffffffffffffffffffffffffffff1673ffffffffffffffffffffffffffffffffffffffff16815260200190815260200160002060009054906101000a900460ff169050919050565b606061122a826114f1565b600060066000848152602001908152602001600020805461124a90612c5f565b80601f016020809104026020016040519081016040528092919081815260200182805461127690612c5f565b80156112c35780601f10611298576101008083540402835291602001916112c3565b820191906000526020600020905b8154815290600101906020018083116112a657829003601f168201915b5050505050905060006112d4611d83565b905060008151036112e957819250505061132c565b60008251111561131e57808260405160200161130692919061343d565b6040516020818303038152906040529250505061132c565b61132784611d9a565b925050505b919050565b6000600560008473ffffffffffffffffffffffffffffffffffffffff1673ffffffffffffffffffffffffffffffffffffffff16815260200190815260200160002060008373ffffffffffffffffffffffffffffffffffffffff1673ffffffffffffffffffffffffffffffffffffffff16815260200190815260200160002060009054906101000a900460ff16905092915050565b6113cd611a77565b600073ffffffffffffffffffffffffffffffffffffffff168173ffffffffffffffffffffffffffffffffffffffff160361143c576040517f08c379a0000000000000000000000000000000000000000000000000000000008152600401611433906134d3565b60405180910390fd5b61144581611af5565b50565b600061145382611e02565b80156114805750600a600083815260200190815260200160002060020160009054906101000a900460ff16155b9050919050565b60007f01ffc9a7000000000000000000000000000000000000000000000000000000007bffffffffffffffffffffffffffffffffffffffffffffffffffffffff1916827bffffffffffffffffffffffffffffffffffffffffffffffffffffffff1916149050919050565b6114fa81611e02565b611539576040517f08c379a0000000000000000000000000000000000000000000000000000000008152600401611530906132ee565b60405180910390fd5b50565b6001816000016000828254019250508190555050565b600081600001549050919050565b61157a828260405180602001604052806000815250611e43565b5050565b61158782611e02565b6115c6576040517f08c379a00000000000000000000000000000000000000000000000000000000081526004016115bd90613565565b60405180910390fd5b806006600084815260200190815260200160002090816115e69190612fc9565b505050565b600033905090565b816004600083815260200190815260200160002060006101000a81548173ffffffffffffffffffffffffffffffffffffffff021916908373ffffffffffffffffffffffffffffffffffffffff160217905550808273ffffffffffffffffffffffffffffffffffffffff1661166683610e24565b73ffffffffffffffffffffffffffffffffffffffff167f8c5be1e5ebec7d5bd14f71427d1e84f3dd0314c0f7b2291e5b200ac8c7c3b92560405160405180910390a45050565b6000806116b883610e24565b90508073ffffffffffffffffffffffffffffffffffffffff168473ffffffffffffffffffffffffffffffffffffffff1614806116fa57506116f98185611331565b5b8061173857508373ffffffffffffffffffffffffffffffffffffffff1661172084610aea565b73ffffffffffffffffffffffffffffffffffffffff16145b91505092915050565b8273ffffffffffffffffffffffffffffffffffffffff1661176182610e24565b73ffffffffffffffffffffffffffffffffffffffff16146117b7576040517f08c379a00000000000000000000000000000000000000000000000000000000081526004016117ae906135f7565b60405180910390fd5b600073ffffffffffffffffffffffffffffffffffffffff168273ffffffffffffffffffffffffffffffffffffffff1603611826576040517f08c379a000000000000000000000000000000000000000000000000000000000815260040161181d90613689565b60405180910390fd5b6118338383836001611e9e565b8273ffffffffffffffffffffffffffffffffffffffff1661185382610e24565b73ffffffffffffffffffffffffffffffffffffffff16146118a9576040517f08c379a00000000000000000000000000000000000000000000000000000000081526004016118a0906135f7565b60405180910390fd5b6004600082815260200190815260200160002060006101000a81549073ffffffffffffffffffffffffffffffffffffffff02191690556001600360008573ffffffffffffffffffffffffffffffffffffffff1673ffffffffffffffffffffffffffffffffffffffff168152602001908152602001600020600082825403925050819055506001600360008473ffffffffffffffffffffffffffffffffffffffff1673ffffffffffffffffffffffffffffffffffffffff16815260200190815260200160002060008282540192505081905550816002600083815260200190815260200160002060006101000a81548173ffffffffffffffffffffffffffffffffffffffff021916908373ffffffffffffffffffffffffffffffffffffffff160217905550808273ffffffffffffffffffffffffffffffffffffffff168473ffffffffffffffffffffffffffffffffffffffff167fddf252ad1be2c89b69c2b068fc378daa952ba7f163c4a11628f55a4df523b3ef60405160405180910390a4611a358383836001611ea4565b505050565b60006002600083815260200190815260200160002060009054906101000a900473ffffffffffffffffffffffffffffffffffffffff169050919050565b611a7f6115eb565b73ffffffffffffffffffffffffffffffffffffffff16611a9d611095565b73ffffffffffffffffffffffffffffffffffffffff1614611af3576040517f08c379a0000000000000000000000000000000000000000000000000000000008152600401611aea906136f5565b60405180910390fd5b565b6000600760009054906101000a900473ffffffffffffffffffffffffffffffffffffffff16905081600760006101000a81548173ffffffffffffffffffffffffffffffffffffffff021916908373ffffffffffffffffffffffffffffffffffffffff1602179055508173ffffffffffffffffffffffffffffffffffffffff168173ffffffffffffffffffffffffffffffffffffffff167f8be0079c531659141344cd1fd0a4f28419497f9722a3daafe3b4186f6b6457e060405160405180910390a35050565b8173ffffffffffffffffffffffffffffffffffffffff168373ffffffffffffffffffffffffffffffffffffffff1603611c29576040517f08c379a0000000000000000000000000000000000000000000000000000000008152600401611c2090613761565b60405180910390fd5b80600560008573ffffffffffffffffffffffffffffffffffffffff1673ffffffffffffffffffffffffffffffffffffffff16815260200190815260200160002060008473ffffffffffffffffffffffffffffffffffffffff1673ffffffffffffffffffffffffffffffffffffffff16815260200190815260200160002060006101000a81548160ff0219169083151502179055508173ffffffffffffffffffffffffffffffffffffffff168373ffffffffffffffffffffffffffffffffffffffff167f17307eab39ab6107e8899845ad3d59bd9653f200f220920489ca2b5937696c3183604051611d1a9190612546565b60405180910390a3505050565b611d32848484611741565b611d3e84848484611eaa565b611d7d576040517f08c379a0000000000000000000000000000000000000000000000000000000008152600401611d74906137f3565b60405180910390fd5b50505050565b606060405180602001604052806000815250905090565b6060611da5826114f1565b6000611daf611d83565b90506000815111611dcf5760405180602001604052806000815250611dfa565b80611dd984612031565b604051602001611dea92919061343d565b6040516020818303038152906040525b915050919050565b60008073ffffffffffffffffffffffffffffffffffffffff16611e2483611a3a565b73ffffffffffffffffffffffffffffffffffffffff1614159050919050565b611e4d83836120ff565b611e5a6000848484611eaa565b611e99576040517f08c379a0000000000000000000000000000000000000000000000000000000008152600401611e90906137f3565b60405180910390fd5b505050565b50505050565b50505050565b6000611ecb8473ffffffffffffffffffffffffffffffffffffffff1661231c565b15612024578373ffffffffffffffffffffffffffffffffffffffff1663150b7a02611ef46115eb565b8786866040518563ffffffff1660e01b8152600401611f169493929190613868565b6020604051808303816000875af1925050508015611f5257506040513d601f19601f82011682018060405250810190611f4f91906138c9565b60015b611fd4573d8060008114611f82576040519150601f19603f3d011682016040523d82523d6000602084013e611f87565b606091505b506000815103611fcc576040517f08c379a0000000000000000000000000000000000000000000000000000000008152600401611fc3906137f3565b60405180910390fd5b805181602001fd5b63150b7a0260e01b7bffffffffffffffffffffffffffffffffffffffffffffffffffffffff1916817bffffffffffffffffffffffffffffffffffffffffffffffffffffffff191614915050612029565b600190505b949350505050565b6060600060016120408461233f565b01905060008167ffffffffffffffff81111561205f5761205e61296a565b5b6040519080825280601f01601f1916602001820160405280156120915781602001600182028036833780820191505090505b509050600082602001820190505b6001156120f4578080600190039150507f3031323334353637383961626364656600000000000000000000000000000000600a86061a8153600a85816120e8576120e76138f6565b5b0494506000850361209f575b819350505050919050565b600073ffffffffffffffffffffffffffffffffffffffff168273ffffffffffffffffffffffffffffffffffffffff160361216e576040517f08c379a000000000000000000000000000000000000000000000000000000000815260040161216590613971565b60405180910390fd5b61217781611e02565b156121b7576040517f08c379a00000000000000000000000000000000000000000000000000000000081526004016121ae906139dd565b60405180910390fd5b6121c5600083836001611e9e565b6121ce81611e02565b1561220e576040517f08c379a0000000000000000000000000000000000000000000000000000000008152600401612205906139dd565b60405180910390fd5b6001600360008473ffffffffffffffffffffffffffffffffffffffff1673ffffffffffffffffffffffffffffffffffffffff16815260200190815260200160002060008282540192505081905550816002600083815260200190815260200160002060006101000a81548173ffffffffffffffffffffffffffffffffffffffff021916908373ffffffffffffffffffffffffffffffffffffffff160217905550808273ffffffffffffffffffffffffffffffffffffffff16600073ffffffffffffffffffffffffffffffffffffffff167fddf252ad1be2c89b69c2b068fc378daa952ba7f163c4a11628f55a4df523b3ef60405160405180910390a4612318600083836001611ea4565b5050565b6000808273ffffffffffffffffffffffffffffffffffffffff163b119050919050565b600080600090507a184f03e93ff9f4daa797ed6e38ed64bf6a1f010000000000000000831061239d577a184f03e93ff9f4daa797ed6e38ed64bf6a1f0100000000000000008381612393576123926138f6565b5b0492506040810190505b6d04ee2d6d415b85acef810000000083106123da576d04ee2d6d415b85acef810000000083816123d0576123cf6138f6565b5b0492506020810190505b662386f26fc10000831061240957662386f26fc1000083816123ff576123fe6138f6565b5b0492506010810190505b6305f5e1008310612432576305f5e1008381612428576124276138f6565b5b0492506008810190505b612710831061245757612710838161244d5761244c6138f6565b5b0492506004810190505b6064831061247a57606483816124705761246f6138f6565b5b0492506002810190505b600a8310612489576001810190505b80915050919050565b6000604051905090565b600080fd5b600080fd5b60007fffffffff0000000000000000000000000000000000000000000000000000000082169050919050565b6124db816124a6565b81146124e657600080fd5b50565b6000813590506124f8816124d2565b92915050565b6000602082840312156125145761251361249c565b5b6000612522848285016124e9565b91505092915050565b60008115159050919050565b6125408161252b565b82525050565b600060208201905061255b6000830184612537565b92915050565b6000819050919050565b61257481612561565b811461257f57600080fd5b50565b6000813590506125918161256b565b92915050565b6000602082840312156125ad576125ac61249c565b5b60006125bb84828501612582565b91505092915050565b600081519050919050565b600082825260208201905092915050565b60005b838110156125fe5780820151818401526020810190506125e3565b60008484015250505050565b6000601f19601f8301169050919050565b6000612626826125c4565b61263081856125cf565b93506126408185602086016125e0565b6126498161260a565b840191505092915050565b6000602082019050818103600083015261266e818461261b565b905092915050565b600073ffffffffffffffffffffffffffffffffffffffff82169050919050565b60006126a182612676565b9050919050565b6126b181612696565b81146126bc57600080fd5b50565b6000813590506126ce816126a8565b92915050565b600080fd5b600080fd5b600080fd5b60008083601f8401126126f9576126f86126d4565b5b8235905067ffffffffffffffff811115612716576127156126d9565b5b602083019150836001820283011115612732576127316126de565b5b9250929050565b6000806000604084860312156127525761275161249c565b5b6000612760868287016126bf565b935050602084013567ffffffffffffffff811115612781576127806124a1565b5b61278d868287016126e3565b92509250509250925092565b6127a281612561565b82525050565b60006020820190506127bd6000830184612799565b92915050565b6127cc81612696565b82525050565b60006020820190506127e760008301846127c3565b92915050565b600080604083850312156128045761280361249c565b5b6000612812858286016126bf565b925050602061282385828601612582565b9150509250929050565b6000806000606084860312156128465761284561249c565b5b6000612854868287016126bf565b9350506020612865868287016126bf565b925050604061287686828701612582565b9150509250925092565b600060808201905061289560008301876127c3565b6128a260208301866127c3565b81810360408301526128b4818561261b565b90506128c36060830184612537565b95945050505050565b6000602082840312156128e2576128e161249c565b5b60006128f0848285016126bf565b91505092915050565b6129028161252b565b811461290d57600080fd5b50565b60008135905061291f816128f9565b92915050565b6000806040838503121561293c5761293b61249c565b5b600061294a858286016126bf565b925050602061295b85828601612910565b9150509250929050565b600080fd5b7f4e487b7100000000000000000000000000000000000000000000000000000000600052604160045260246000fd5b6129a28261260a565b810181811067ffffffffffffffff821117156129c1576129c061296a565b5b80604052505050565b60006129d4612492565b90506129e08282612999565b919050565b600067ffffffffffffffff821115612a00576129ff61296a565b5b612a098261260a565b9050602081019050919050565b82818337600083830152505050565b6000612a38612a33846129e5565b6129ca565b905082815260208101848484011115612a5457612a53612965565b5b612a5f848285612a16565b509392505050565b600082601f830112612a7c57612a7b6126d4565b5b8135612a8c848260208601612a25565b91505092915050565b60008060008060808587031215612aaf57612aae61249c565b5b6000612abd878288016126bf565b9450506020612ace878288016126bf565b9350506040612adf87828801612582565b925050606085013567ffffffffffffffff811115612b0057612aff6124a1565b5b612b0c87828801612a67565b91505092959194509250565b60008060408385031215612b2f57612b2e61249c565b5b6000612b3d858286016126bf565b9250506020612b4e858286016126bf565b9150509250929050565b7f416c7265616479207265766f6b65640000000000000000000000000000000000600082015250565b6000612b8e600f836125cf565b9150612b9982612b58565b602082019050919050565b60006020820190508181036000830152612bbd81612b81565b9050919050565b7f4e6f7420617574686f72697a6564000000000000000000000000000000000000600082015250565b6000612bfa600e836125cf565b9150612c0582612bc4565b602082019050919050565b60006020820190508181036000830152612c2981612bed565b9050919050565b7f4e487b7100000000000000000000000000000000000000000000000000000000600052602260045260246000fd5b60006002820490506001821680612c7757607f821691505b602082108103612c8a57612c89612c30565b5b50919050565b7f4e6f7420616e20617070726f76656420696e737469747574696f6e0000000000600082015250565b6000612cc6601b836125cf565b9150612cd182612c90565b602082019050919050565b60006020820190508181036000830152612cf581612cb9565b9050919050565b7f496e76616c696420726563697069656e74000000000000000000000000000000600082015250565b6000612d326011836125cf565b9150612d3d82612cfc565b602082019050919050565b60006020820190508181036000830152612d6181612d25565b9050919050565b600081905092915050565b6000612d7f8385612d68565b9350612d8c838584612a16565b82840190509392505050565b6000612da5828486612d73565b91508190509392505050565b7f4d6574616461746120616c726561647920757365640000000000000000000000600082015250565b6000612de76015836125cf565b9150612df282612db1565b602082019050919050565b60006020820190508181036000830152612e1681612dda565b9050919050565b60008190508160005260206000209050919050565b60006020601f8301049050919050565b600082821b905092915050565b600060088302612e7f7fffffffffffffffffffffffffffffffffffffffffffffffffffffffffffffffff82612e42565b612e898683612e42565b95508019841693508086168417925050509392505050565b6000819050919050565b6000612ec6612ec1612ebc84612561565b612ea1565b612561565b9050919050565b6000819050919050565b612ee083612eab565b612ef4612eec82612ecd565b848454612e4f565b825550505050565b600090565b612f09612efc565b612f14818484612ed7565b505050565b5b81811015612f3857612f2d600082612f01565b600181019050612f1a565b5050565b601f821115612f7d57612f4e81612e1d565b612f5784612e32565b81016020851015612f66578190505b612f7a612f7285612e32565b830182612f19565b50505b505050565b600082821c905092915050565b6000612fa060001984600802612f82565b1980831691505092915050565b6000612fb98383612f8f565b9150826002028217905092915050565b612fd2826125c4565b67ffffffffffffffff811115612feb57612fea61296a565b5b612ff58254612c5f565b613000828285612f3c565b600060209050601f8311600181146130335760008415613021578287015190505b61302b8582612fad565b865550613093565b601f19841661304186612e1d565b60005b8281101561306957848901518255600182019150602085019450602081019050613044565b868310156130865784890151613082601f891682612f8f565b8355505b6001600288020188555050505b505050505050565b60006130a783856125cf565b93506130b4838584612a16565b6130bd8361260a565b840190509392505050565b600060208201905081810360008301526130e381848661309b565b90509392505050565b7f4552433732313a20617070726f76616c20746f2063757272656e74206f776e6560008201527f7200000000000000000000000000000000000000000000000000000000000000602082015250565b60006131486021836125cf565b9150613153826130ec565b604082019050919050565b600060208201905081810360008301526131778161313b565b9050919050565b7f4552433732313a20617070726f76652063616c6c6572206973206e6f7420746f60008201527f6b656e206f776e6572206f7220617070726f76656420666f7220616c6c000000602082015250565b60006131da603d836125cf565b91506131e58261317e565b604082019050919050565b60006020820190508181036000830152613209816131cd565b9050919050565b7f4552433732313a2063616c6c6572206973206e6f7420746f6b656e206f776e6560008201527f72206f7220617070726f76656400000000000000000000000000000000000000602082015250565b600061326c602d836125cf565b915061327782613210565b604082019050919050565b6000602082019050818103600083015261329b8161325f565b9050919050565b7f4552433732313a20696e76616c696420746f6b656e2049440000000000000000600082015250565b60006132d86018836125cf565b91506132e3826132a2565b602082019050919050565b60006020820190508181036000830152613307816132cb565b9050919050565b7f4552433732313a2061646472657373207a65726f206973206e6f74206120766160008201527f6c6964206f776e65720000000000000000000000000000000000000000000000602082015250565b600061336a6029836125cf565b91506133758261330e565b604082019050919050565b600060208201905081810360008301526133998161335d565b9050919050565b7f496e76616c696420696e737469747574696f6e00000000000000000000000000600082015250565b60006133d66013836125cf565b91506133e1826133a0565b602082019050919050565b60006020820190508181036000830152613405816133c9565b9050919050565b6000613417826125c4565b6134218185612d68565b93506134318185602086016125e0565b80840191505092915050565b6000613449828561340c565b9150613455828461340c565b91508190509392505050565b7f4f776e61626c653a206e6577206f776e657220697320746865207a65726f206160008201527f6464726573730000000000000000000000000000000000000000000000000000602082015250565b60006134bd6026836125cf565b91506134c882613461565b604082019050919050565b600060208201905081810360008301526134ec816134b0565b9050919050565b7f45524337323155524953746f726167653a2055524920736574206f66206e6f6e60008201527f6578697374656e7420746f6b656e000000000000000000000000000000000000602082015250565b600061354f602e836125cf565b915061355a826134f3565b604082019050919050565b6000602082019050818103600083015261357e81613542565b9050919050565b7f4552433732313a207472616e736665722066726f6d20696e636f72726563742060008201527f6f776e6572000000000000000000000000000000000000000000000000000000602082015250565b60006135e16025836125cf565b91506135ec82613585565b604082019050919050565b60006020820190508181036000830152613610816135d4565b9050919050565b7f4552433732313a207472616e7366657220746f20746865207a65726f2061646460008201527f7265737300000000000000000000000000000000000000000000000000000000602082015250565b60006136736024836125cf565b915061367e82613617565b604082019050919050565b600060208201905081810360008301526136a281613666565b9050919050565b7f4f776e61626c653a2063616c6c6572206973206e6f7420746865206f776e6572600082015250565b60006136df6020836125cf565b91506136ea826136a9565b602082019050919050565b6000602082019050818103600083015261370e816136d2565b9050919050565b7f4552433732313a20617070726f766520746f2063616c6c657200000000000000600082015250565b600061374b6019836125cf565b915061375682613715565b602082019050919050565b6000602082019050818103600083015261377a8161373e565b9050919050565b7f4552433732313a207472616e7366657220746f206e6f6e20455243373231526560008201527f63656976657220696d706c656d656e7465720000000000000000000000000000602082015250565b60006137dd6032836125cf565b91506137e882613781565b604082019050919050565b6000602082019050818103600083015261380c816137d0565b9050919050565b600081519050919050565b600082825260208201905092915050565b600061383a82613813565b613844818561381e565b93506138548185602086016125e0565b61385d8161260a565b840191505092915050565b600060808201905061387d60008301876127c3565b61388a60208301866127c3565b6138976040830185612799565b81810360608301526138a9818461382f565b905095945050505050565b6000815190506138c3816124d2565b92915050565b6000602082840312156138df576138de61249c565b5b60006138ed848285016138b4565b91505092915050565b7f4e487b7100000000000000000000000000000000000000000000000000000000600052601260045260246000fd5b7f4552433732313a206d696e7420746f20746865207a65726f2061646472657373600082015250565b600061395b6020836125cf565b915061396682613925565b602082019050919050565b6000602082019050818103600083015261398a8161394e565b9050919050565b7f4552433732313a20746f6b656e20616c7265616479206d696e74656400000000600082015250565b60006139c7601c836125cf565b91506139d282613991565b602082019050919050565b600060208201905081810360008301526139f6816139ba565b905091905056fea264697066735822122082ed93cae6a8ce9edc5663bceecafd3baef03261f1044fa6c9afa54b780930a864736f6c63430008130033",
  "linkReferences": {},
  "deployedLinkReferences": {}
}