{
  "_format": "hh-sol-artifact-1",
  "contractName": "CertificateNFT",
  "sourceName": "contracts/CertificateNFT.sol",
  "abi": [
    {
      "inputs": [],
      "stateMutability": "nonpayable",
      "type": "constructor"
    },
    {
      "anonymous": false,
      "inputs": [
        {
          "indexed": true,
          "internalType": "address",
          "name": "owner",
          "type": "address"
        },
        {
          "indexed": true,
          "internalType": "address",
          "name": "approved",
          "type": "address"
        },
        {
          "indexed": true,
          "internalType": "uint256",
          "name": "tokenId",
          "type": "uint256"
        }
      ],
      "name": "Approval",
      "type": "event"
    },
    {
      "anonymous": false,
      "inputs": [
        {
          "indexed": true,
          "internalType": "address",
          "name": "owner",
          "type": "address"
        },
        {
          "indexed": true,
          "internalType": "address",
          "name": "operator",
          "type": "address"
        },
        {
          "indexed": false,
          "internalType": "bool",
          "name": "approved",
          "type": "bool"
        }
      ],
      "name": "ApprovalForAll",
      "type": "event"
    },
    {
      "anonymous": false,
      "inputs": [
        {
          "indexed": false,
          "internalType": "uint256",
          "name": "_fromTokenId",
          "type": "uint256"
        },
        {
          "indexed": false,
          "internalType": "uint256",
          "name": "_toTokenId",
          "type": "uint256"
        }
      ],
      "name": "BatchMetadataUpdate",
      "type": "event"
    },
    {
      "anonymous": false,
      "inputs": [
        {
          "indexed": true,
          "internalType": "uint256",
          "name": "tokenId",
          "type": "uint256"
        },
        {
          "indexed": true,
          "internalType": "address",
          "name": "to",
          "type": "address"
        },
        {
          "indexed": true,
          "internalType": "address",
          "name": "issuer",
          "type": "address"
        },
        {
          "indexed": false,
          "internalType": "string",
          "name": "uri",
          "type": "string"
        }
      ],
      "name": "CertificateMinted",
      "type": "event"
    },
    {
      "anonymous": false,
      "inputs": [
        {
          "indexed": true,
          "internalType": "uint256",
          "name": "tokenId",
          "type": "uint256"
        },
        {
          "indexed": true,
          "internalType": "address",
          "name": "revokedBy",
          "type": "address"
        }
      ],
      "name": "CertificateRevoked",
      "type": "event"
    },
    {
      "anonymous": false,
      "inputs": [
        {
          "indexed": false,
          "internalType": "uint256",
          "name": "_tokenId",
          "type": "uint256"
        }
      ],
      "name": "MetadataUpdate",
      "type": "event"
    },
    {
      "anonymous": false,
      "inputs": [
        {
          "indexed": true,
          "internalType": "address",
          "name": "previousOwner",
          "type": "address"
        },
        {
          "indexed": true,
          "internalType": "address",
          "name": "newOwner",
          "type": "address"
        }
      ],
      "name": "OwnershipTransferred",
      "type": "event"
    },
    {
      "anonymous": false,
      "inputs": [
        {
          "indexed": true,
          "internalType": "address",
          "name": "from",
          "type": "address"
        },
        {
          "indexed": true,
          "internalType": "address",
          "name": "to",
          "type": "address"
        },
        {
          "indexed": true,
          "internalType": "uint256",
          "name": "tokenId",
          "type": "uint256"
        }
      ],
      "name": "Transfer",
      "type": "event"
    },
    {
      "inputs": [
        {
          "internalType": "address",
          "name": "to",
          "type": "address"
        },
        {
          "internalType": "uint256",
          "name": "tokenId",
          "type": "uint256"
        }
      ],
      "name": "approve",
      "outputs": [],
      "stateMutability": "nonpayable",
      "type": "function"
    },
    {
      "inputs": [
        {
          "internalType": "address",
          "name": "owner",
          "type": "address"
        }
      ],
      "name": "balanceOf",
      "outputs": [
        {
          "internalType": "uint256",
          "name": "",
          "type": "uint256"
        }
      ],
      "stateMutability": "view",
      "type": "function"
    },
    {
      "inputs": [
        {
          "internalType": "uint256",
          "name": "tokenId",
          "type": "uint256"
        }
      ],
      "name": "getApproved",
      "outputs": [
        {
          "internalType": "address",
          "name": "",
          "type": "address"
        }
      ],
      "stateMutability": "view",
      "type": "function"
    },
    {
      "inputs": [
        {
          "internalType": "uint256",
          "name": "tokenId",
          "type": "uint256"
        }
      ],
      "name": "getCertificate",
      "outputs": [
        {
          "internalType": "address",
          "name": "owner_",
          "type": "address"
        },
        {
          "internalType": "address",
          "name": "issuer",
          "type": "address"
        },
        {
          "internalType": "string",
          "name": "uri",
          "type": "string"
        },
        {
          "internalType": "bool",
          "name": "revoked",
          "type": "bool"
        }
      ],
      "stateMutability": "view",
      "type": "function"
    },
    {
      "inputs": [
        {
          "internalType": "address",
          "name": "owner",
          "type": "address"
        },
        {
          "internalType": "address",
          "name": "operator",
          "type": "address"
        }
      ],
      "name": "isApprovedForAll",
      "outputs": [
        {
          "internalType": "bool",
          "name": "",
          "type": "bool"
        }
      ],
      "stateMutability": "view",
      "type": "function"
    },
    {
      "inputs": [
        {
          "internalType": "uint256",
          "name": "tokenId",
          "type": "uint256"
        }
      ],
      "name": "isValid",
      "outputs": [
        {
          "internalType": "bool",
          "name": "",
          "type": "bool"
        }
      ],
      "stateMutability": "view",
      "type": "function"
    },
    {
      "inputs": [
        {
          "internalType": "address",
          "name": "to",
          "type": "address"
        },
        {
          "internalType": "string",
          "name": "uri",
          "type": "string"
        }
      ],
      "name": "mintCertificate",
      "outputs": [
        {
          "internalType": "uint256",
          "name": "",
          "type": "uint256"
        }
      ],
      "stateMutability": "nonpayable",
      "type": "function"
    },
    {
      "inputs": [],
      "name": "name",
      "outputs": [
        {
          "internalType": "string",
          "name": "",
          "type": "string"
        }
      ],
      "stateMutability": "view",
      "type": "function"
    },
    {
      "inputs": [],
      "name": "owner",
      "outputs": [
        {
          "internalType": "address",
          "name": "",
          "type": "address"
        }
      ],
      "stateMutability": "view",
      "type": "function"
    },
    {
      "inputs": [
        {
          "internalType": "uint256",
          "name": "tokenId",
          "type": "uint256"
        }
      ],
      "name": "ownerOf",
      "outputs": [
        {
          "internalType": "address",
          "name": "",
          "type": "address"
        }
      ],
      "stateMutability": "view",
      "type": "function"
    },
    {
      "inputs": [],
      "name": "renounceOwnership",
      "outputs": [],
      "stateMutability": "nonpayable",
      "type": "function"
    },
    {
      "inputs": [
        {
          "internalType": "uint256",
          "name": "tokenId",
          "type": "uint256"
        }
      ],
      "name": "revokeCertificate",
      "outputs": [],
      "stateMutability": "nonpayable",
      "type": "function"
    },
    {
      "inputs": [
        {
          "internalType": "address",
          "name": "from",
          "type": "address"
        },
        {
          "internalType": "address",
          "name": "to",
          "type": "address"
        },
        {
          "internalType": "uint256",
          "name": "tokenId",
          "type": "uint256"
        }
      ],
      "name": "safeTransferFrom",
      "outputs": [],
      "stateMutability": "nonpayable",
      "type": "function"
    },
    {
      "inputs": [
        {
          "internalType": "address",
          "name": "from",
          "type": "address"
        },
        {
          "internalType": "address",
          "name": "to",
          "type": "address"
        },
        {
          "internalType": "uint256",
          "name": "tokenId",
          "type": "uint256"
        },
        {
          "internalType": "bytes",
          "name": "data",
          "type": "bytes"
        }
      ],
      "name": "safeTransferFrom",
      "outputs": [],
      "stateMutability": "nonpayable",
      "type": "function"
    },
    {
      "inputs": [
        {
          "internalType": "address",
          "name": "operator",
          "type": "address"
        },
        {
          "internalType": "bool",
          "name": "approved",
          "type": "bool"
        }
      ],
      "name": "setApprovalForAll",
      "outputs": [],
      "stateMutability": "nonpayable",
      "type": "function"
    },
    {
      "inputs": [
        {
          "internalType": "bytes4",
          "name": "interfaceId",
          "type": "bytes4"
        }
      ],
      "name": "supportsInterface",
      "outputs": [
        {
          "internalType": "bool",
          "name": "",
          "type": "bool"
        }
      ],
      "stateMutability": "view",
      "type": "function"
    },
    {
      "inputs": [],
      "name": "symbol",
      "outputs": [
        {
          "internalType": "string",
          "name": "",
          "type": "string"
        }
      ],
      "stateMutability": "view",
      "type": "function"
    },
    {
      "inputs": [
        {
          "internalType": "uint256",
          "name": "tokenId",
          "type": "uint256"
        }
      ],
      "name": "tokenURI",
      "outputs": [
        {
          "internalType": "string",
          "name": "",
          "type": "string"
        }
      ],
      "stateMutability": "view",
      "type": "function"
    },
    {
      "inputs": [
        {
          "internalType": "address",
          "name": "from",
          "type": "address"
        },
        {
          "internalType": "address",
          "name": "to",
          "type": "address"
        },
        {
          "internalType": "uint256",
          "name": "tokenId",
          "type": "uint256"
        }
      ],
      "name": "transferFrom",
      "outputs": [],
      "stateMutability": "nonpayable",
      "type": "function"
    },
    {
      "inputs": [
        {
          "internalType": "address",
          "name": "newOwner",
          "type": "address"
        }
      ],
      "name": "transferOwnership",
      "outputs": [],
      "stateMutability": "nonpayable",
      "type": "function"
    }
  ],
  "bytecode": "0x60806040523480156200001157600080fd5b506040518060400160405280600e81526020017f43657274696669636174654e46540000000000000000000000000000000000008152506040518060400160405280600481526020017f434552540000000000000000000000000000000000000000000000000000000081525081600090816200008f919062000412565b508060019081620000a1919062000412565b505050620000c4620000b8620000ca60201b60201c565b620000d260201b60201c565b620004f9565b600033905090565b6000600760009054906101000a900473ffffffffffffffffffffffffffffffffffffffff16905081600760006101000a81548173ffffffffffffffffffffffffffffffffffffffff021916908373ffffffffffffffffffffffffffffffffffffffff1602179055508173ffffffffffffffffffffffffffffffffffffffff168173ffffffffffffffffffffffffffffffffffffffff167f8be0079c531659141344cd1fd0a4f28419497f9722a3daafe3b4186f6b6457e060405160405180910390a35050565b600081519050919050565b7f4e487b7100000000000000000000000000000000000000000000000000000000600052604160045260246000fd5b7f4e487b7100000000000000000000000000000000000000000000000000000000600052602260045260246000fd5b600060028204905060018216806200021a57607f821691505b60208210810362000230576200022f620001d2565b5b50919050565b60008190508160005260206000209050919050565b60006020601f8301049050919050565b600082821b905092915050565b6000600883026200029a7fffffffffffffffffffffffffffffffffffffffffffffffffffffffffffffffff826200025b565b620002a686836200025b565b95508019841693508086168417925050509392505050565b6000819050919050565b6000819050919050565b6000620002f3620002ed620002e784620002be565b620002c8565b620002be565b9050919050565b6000819050919050565b6200030f83620002d2565b620003276200031e82620002fa565b84845462000268565b825550505050565b600090565b6200033e6200032f565b6200034b81848462000304565b505050565b5b8181101562000373576200036760008262000334565b60018101905062000351565b5050565b601f821115620003c2576200038c8162000236565b62000397846200024b565b81016020851015620003a7578190505b620003bf620003b6856200024b565b83018262000350565b50505b505050565b600082821c905092915050565b6000620003e760001984600802620003c7565b1980831691505092915050565b6000620004028383620003d4565b9150826002028217905092915050565b6200041d8262000198565b67ffffffffffffffff811115620004395762000438620001a3565b5b62000445825462000201565b6200045282828562000377565b600060209050601f8311600181146200048a576000841562000475578287015190505b620004818582620003f4565b865550620004f1565b601f1984166200049a8662000236565b60005b82811015620004c4578489015182556001820191506020850194506020810190506200049d565b86831015620004e45784890151620004e0601f891682620003d4565b8355505b6001600288020188555050505b505050505050565b6137d280620005096000396000f3fe608060405234801561001057600080fd5b506004361061012c5760003560e01c806370a08231116100ad578063b88d4fde11610071578063b88d4fde14610344578063c87b56dd14610360578063e985e9c514610390578063f2fde38b146103c0578063f577a500146103dc5761012c565b806370a08231146102b2578063715018a6146102e25780638da5cb5b146102ec57806395d89b411461030a578063a22cb465146103285761012c565b8063095ea7b3116100f4578063095ea7b3146101fb57806323b872dd1461021757806342842e0e1461023357806351640fee1461024f5780636352211e146102825761012c565b806301ffc9a71461013157806306f5497e1461016157806306fdde031461017d5780630712249f1461019b578063081812fc146101cb575b600080fd5b61014b60048036038101906101469190612375565b61040c565b60405161015891906123bd565b60405180910390f35b61017b6004803603810190610176919061240e565b61046d565b005b610185610613565b60405161019291906124cb565b60405180910390f35b6101b560048036038101906101b091906125b0565b6106a5565b6040516101c2919061261f565b60405180910390f35b6101e560048036038101906101e0919061240e565b6109be565b6040516101f29190612649565b60405180910390f35b61021560048036038101906102109190612664565b610a04565b005b610231600480360381019061022c91906126a4565b610b1b565b005b61024d600480360381019061024891906126a4565b610b7b565b005b6102696004803603810190610264919061240e565b610b9b565b60405161027994939291906126f7565b60405180910390f35b61029c6004803603810190610297919061240e565b610cf8565b6040516102a99190612649565b60405180910390f35b6102cc60048036038101906102c79190612743565b610d7e565b6040516102d9919061261f565b60405180910390f35b6102ea610e35565b005b6102f4610e49565b6040516103019190612649565b60405180910390f35b610312610e73565b60405161031f91906124cb565b60405180910390f35b610342600480360381019061033d919061279c565b610f05565b005b61035e6004803603810190610359919061290c565b610f1b565b005b61037a6004803603810190610375919061240e565b610f7d565b60405161038791906124cb565b60405180910390f35b6103aa60048036038101906103a5919061298f565b61108f565b6040516103b791906123bd565b60405180910390f35b6103da60048036038101906103d59190612743565b611123565b005b6103f660048036038101906103f1919061240e565b6111a6565b60405161040391906123bd565b60405180910390f35b6000634906490660e01b7bffffffffffffffffffffffffffffffffffffffffffffffffffffffff1916827bffffffffffffffffffffffffffffffffffffffffffffffffffffffff191614806104665750610465826111e5565b5b9050919050565b610476816112c7565b60006009600083815260200190815260200160002090508060020160009054906101000a900460ff16156104df576040517f08c379a00000000000000000000000000000000000000000000000000000000081526004016104d690612a1b565b60405180910390fd5b8060000160009054906101000a900473ffffffffffffffffffffffffffffffffffffffff1673ffffffffffffffffffffffffffffffffffffffff163373ffffffffffffffffffffffffffffffffffffffff16148061056f5750610540610e49565b73ffffffffffffffffffffffffffffffffffffffff163373ffffffffffffffffffffffffffffffffffffffff16145b6105ae576040517f08c379a00000000000000000000000000000000000000000000000000000000081526004016105a590612a87565b60405180910390fd5b60018160020160006101000a81548160ff0219169083151502179055503373ffffffffffffffffffffffffffffffffffffffff16827f325c62e70cfaa61cf0709d9607ea9d8451b235297c4b47c65ff6a6449c9faca460405160405180910390a35050565b60606000805461062290612ad6565b80601f016020809104026020016040519081016040528092919081815260200182805461064e90612ad6565b801561069b5780601f106106705761010080835404028352916020019161069b565b820191906000526020600020905b81548152906001019060200180831161067e57829003601f168201915b5050505050905090565b60008073ffffffffffffffffffffffffffffffffffffffff168473ffffffffffffffffffffffffffffffffffffffff1603610715576040517f08c379a000000000000000000000000000000000000000000000000000000000815260040161070c90612b53565b60405180910390fd5b6000838360405160200161072a929190612ba3565b604051602081830303815290604052805190602001209050600a600082815260200190815260200160002060009054906101000a900460ff16156107a3576040517f08c379a000000000000000000000000000000000000000000000000000000000815260040161079a90612c08565b60405180910390fd5b6107ad6008611312565b60006107b96008611328565b90506107c58682611336565b6108138186868080601f016020809104026020016040519081016040528093929190818152602001838380828437600081840152601f19601f82011690508083019250505050505050611354565b60405180606001604052803373ffffffffffffffffffffffffffffffffffffffff16815260200186868080601f016020809104026020016040519081016040528093929190818152602001838380828437600081840152601f19601f820116905080830192505050505050508152602001600015158152506009600083815260200190815260200160002060008201518160000160006101000a81548173ffffffffffffffffffffffffffffffffffffffff021916908373ffffffffffffffffffffffffffffffffffffffff16021790555060208201518160010190816108fa9190612dd4565b5060408201518160020160006101000a81548160ff0219169083151502179055509050506001600a600084815260200190815260200160002060006101000a81548160ff0219169083151502179055503373ffffffffffffffffffffffffffffffffffffffff168673ffffffffffffffffffffffffffffffffffffffff16827f12644ce7a7c24279219a9b62022bda85e1656aa406b6f183eb6a9f0bac7d987588886040516109aa929190612ed3565b60405180910390a480925050509392505050565b60006109c9826112c7565b6004600083815260200190815260200160002060009054906101000a900473ffffffffffffffffffffffffffffffffffffffff169050919050565b6000610a0f82610cf8565b90508073ffffffffffffffffffffffffffffffffffffffff168373ffffffffffffffffffffffffffffffffffffffff1603610a7f576040517f08c379a0000000000000000000000000000000000000000000000000000000008152600401610a7690612f69565b60405180910390fd5b8073ffffffffffffffffffffffffffffffffffffffff16610a9e6113f8565b73ffffffffffffffffffffffffffffffffffffffff161480610acd5750610acc81610ac76113f8565b61108f565b5b610b0c576040517f08c379a0000000000000000000000000000000000000000000000000000000008152600401610b0390612ffb565b60405180910390fd5b610b168383611400565b505050565b610b2c610b266113f8565b826114b9565b610b6b576040517f08c379a0000000000000000000000000000000000000000000000000000000008152600401610b629061308d565b60405180910390fd5b610b7683838361154e565b505050565b610b9683838360405180602001604052806000815250610f1b565b505050565b60008060606000610bab856112c7565b6000600960008781526020019081526020016000206040518060600160405290816000820160009054906101000a900473ffffffffffffffffffffffffffffffffffffffff1673ffffffffffffffffffffffffffffffffffffffff1673ffffffffffffffffffffffffffffffffffffffff168152602001600182018054610c3190612ad6565b80601f0160208091040260200160405190810160405280929190818152602001828054610c5d90612ad6565b8015610caa5780601f10610c7f57610100808354040283529160200191610caa565b820191906000526020600020905b815481529060010190602001808311610c8d57829003601f168201915b505050505081526020016002820160009054906101000a900460ff1615151515815250509050610cd986610cf8565b8160000151826020015183604001519450945094509450509193509193565b600080610d0483611847565b9050600073ffffffffffffffffffffffffffffffffffffffff168173ffffffffffffffffffffffffffffffffffffffff1603610d75576040517f08c379a0000000000000000000000000000000000000000000000000000000008152600401610d6c906130f9565b60405180910390fd5b80915050919050565b60008073ffffffffffffffffffffffffffffffffffffffff168273ffffffffffffffffffffffffffffffffffffffff1603610dee576040517f08c379a0000000000000000000000000000000000000000000000000000000008152600401610de59061318b565b60405180910390fd5b600360008373ffffffffffffffffffffffffffffffffffffffff1673ffffffffffffffffffffffffffffffffffffffff168152602001908152602001600020549050919050565b610e3d611884565b610e476000611902565b565b6000600760009054906101000a900473ffffffffffffffffffffffffffffffffffffffff16905090565b606060018054610e8290612ad6565b80601f0160208091040260200160405190810160405280929190818152602001828054610eae90612ad6565b8015610efb5780601f10610ed057610100808354040283529160200191610efb565b820191906000526020600020905b815481529060010190602001808311610ede57829003601f168201915b5050505050905090565b610f17610f106113f8565b83836119c8565b5050565b610f2c610f266113f8565b836114b9565b610f6b576040517f08c379a0000000000000000000000000000000000000000000000000000000008152600401610f629061308d565b60405180910390fd5b610f7784848484611b34565b50505050565b6060610f88826112c7565b6000600660008481526020019081526020016000208054610fa890612ad6565b80601f0160208091040260200160405190810160405280929190818152602001828054610fd490612ad6565b80156110215780601f10610ff657610100808354040283529160200191611021565b820191906000526020600020905b81548152906001019060200180831161100457829003601f168201915b505050505090506000611032611b90565b9050600081510361104757819250505061108a565b60008251111561107c5780826040516020016110649291906131dc565b6040516020818303038152906040529250505061108a565b61108584611ba7565b925050505b919050565b6000600560008473ffffffffffffffffffffffffffffffffffffffff1673ffffffffffffffffffffffffffffffffffffffff16815260200190815260200160002060008373ffffffffffffffffffffffffffffffffffffffff1673ffffffffffffffffffffffffffffffffffffffff16815260200190815260200160002060009054906101000a900460ff16905092915050565b61112b611884565b600073ffffffffffffffffffffffffffffffffffffffff168173ffffffffffffffffffffffffffffffffffffffff160361119a576040517f08c379a000000000000000000000000000000000000000000000000000000000815260040161119190613272565b60405180910390fd5b6111a381611902565b50565b60006111b182611c0f565b80156111de57506009600083815260200190815260200160002060020160009054906101000a900460ff16155b9050919050565b60007f80ac58cd000000000000000000000000000000000000000000000000000000007bffffffffffffffffffffffffffffffffffffffffffffffffffffffff1916827bffffffffffffffffffffffffffffffffffffffffffffffffffffffff191614806112b057507f5b5e139f000000000000000000000000000000000000000000000000000000007bffffffffffffffffffffffffffffffffffffffffffffffffffffffff1916827bffffffffffffffffffffffffffffffffffffffffffffffffffffffff1916145b806112c057506112bf82611c50565b5b9050919050565b6112d081611c0f565b61130f576040517f08c379a0000000000000000000000000000000000000000000000000000000008152600401611306906130f9565b60405180910390fd5b50565b6001816000016000828254019250508190555050565b600081600001549050919050565b611350828260405180602001604052806000815250611cba565b5050565b61135d82611c0f565b61139c576040517f08c379a000000000000000000000000000000000000000000000000000000000815260040161139390613304565b60405180910390fd5b806006600084815260200190815260200160002090816113bc9190612dd4565b507ff8e1a15aba9398e019f0b49df1a4fde98ee17ae345cb5f6b5e2c27f5033e8ce7826040516113ec919061261f565b60405180910390a15050565b600033905090565b816004600083815260200190815260200160002060006101000a81548173ffffffffffffffffffffffffffffffffffffffff021916908373ffffffffffffffffffffffffffffffffffffffff160217905550808273ffffffffffffffffffffffffffffffffffffffff1661147383610cf8565b73ffffffffffffffffffffffffffffffffffffffff167f8c5be1e5ebec7d5bd14f71427d1e84f3dd0314c0f7b2291e5b200ac8c7c3b92560405160405180910390a45050565b6000806114c583610cf8565b90508073ffffffffffffffffffffffffffffffffffffffff168473ffffffffffffffffffffffffffffffffffffffff1614806115075750611506818561108f565b5b8061154557508373ffffffffffffffffffffffffffffffffffffffff1661152d846109be565b73ffffffffffffffffffffffffffffffffffffffff16145b91505092915050565b8273ffffffffffffffffffffffffffffffffffffffff1661156e82610cf8565b73ffffffffffffffffffffffffffffffffffffffff16146115c4576040517f08c379a00000000000000000000000000000000000000000000000000000000081526004016115bb90613396565b60405180910390fd5b600073ffffffffffffffffffffffffffffffffffffffff168273ffffffffffffffffffffffffffffffffffffffff1603611633576040517f08c379a000000000000000000000000000000000000000000000000000000000815260040161162a90613428565b60405180910390fd5b6116408383836001611d15565b8273ffffffffffffffffffffffffffffffffffffffff1661166082610cf8565b73ffffffffffffffffffffffffffffffffffffffff16146116b6576040517f08c379a00000000000000000000000000000000000000000000000000000000081526004016116ad90613396565b60405180910390fd5b6004600082815260200190815260200160002060006101000a81549073ffffffffffffffffffffffffffffffffffffffff02191690556001600360008573ffffffffffffffffffffffffffffffffffffffff1673ffffffffffffffffffffffffffffffffffffffff168152602001908152602001600020600082825403925050819055506001600360008473ffffffffffffffffffffffffffffffffffffffff1673ffffffffffffffffffffffffffffffffffffffff16815260200190815260200160002060008282540192505081905550816002600083815260200190815260200160002060006101000a81548173ffffffffffffffffffffffffffffffffffffffff021916908373ffffffffffffffffffffffffffffffffffffffff160217905550808273ffffffffffffffffffffffffffffffffffffffff168473ffffffffffffffffffffffffffffffffffffffff167fddf252ad1be2c89b69c2b068fc378daa952ba7f163c4a11628f55a4df523b3ef60405160405180910390a46118428383836001611d1b565b505050565b60006002600083815260200190815260200160002060009054906101000a900473ffffffffffffffffffffffffffffffffffffffff169050919050565b61188c6113f8565b73ffffffffffffffffffffffffffffffffffffffff166118aa610e49565b73ffffffffffffffffffffffffffffffffffffffff1614611900576040517f08c379a00000000000000000000000000000000000000000000000000000000081526004016118f790613494565b60405180910390fd5b565b6000600760009054906101000a900473ffffffffffffffffffffffffffffffffffffffff16905081600760006101000a81548173ffffffffffffffffffffffffffffffffffffffff021916908373ffffffffffffffffffffffffffffffffffffffff1602179055508173ffffffffffffffffffffffffffffffffffffffff168173ffffffffffffffffffffffffffffffffffffffff167f8be0079c531659141344cd1fd0a4f28419497f9722a3daafe3b4186f6b6457e060405160405180910390a35050565b8173ffffffffffffffffffffffffffffffffffffffff168373ffffffffffffffffffffffffffffffffffffffff1603611a36576040517f08c379a0000000000000000000000000000000000000000000000000000000008152600401611a2d90613500565b60405180910390fd5b80600560008573ffffffffffffffffffffffffffffffffffffffff1673ffffffffffffffffffffffffffffffffffffffff16815260200190815260200160002060008473ffffffffffffffffffffffffffffffffffffffff1673ffffffffffffffffffffffffffffffffffffffff16815260200190815260200160002060006101000a81548160ff0219169083151502179055508173ffffffffffffffffffffffffffffffffffffffff168373ffffffffffffffffffffffffffffffffffffffff167f17307eab39ab6107e8899845ad3d59bd9653f200f220920489ca2b5937696c3183604051611b2791906123bd565b60405180910390a3505050565b611b3f84848461154e565b611b4b84848484611d21565b611b8a576040517f08c379a0000000000000000000000000000000000000000000000000000000008152600401611b8190613592565b60405180910390fd5b50505050565b606060405180602001604052806000815250905090565b6060611bb2826112c7565b6000611bbc611b90565b90506000815111611bdc5760405180602001604052806000815250611c07565b80611be684611ea8565b604051602001611bf79291906131dc565b6040516020818303038152906040525b915050919050565b60008073ffffffffffffffffffffffffffffffffffffffff16611c3183611847565b73ffffffffffffffffffffffffffffffffffffffff1614159050919050565b60007f01ffc9a7000000000000000000000000000000000000000000000000000000007bffffffffffffffffffffffffffffffffffffffffffffffffffffffff1916827bffffffffffffffffffffffffffffffffffffffffffffffffffffffff1916149050919050565b611cc48383611f76565b611cd16000848484611d21565b611d10576040517f08c379a0000000000000000000000000000000000000000000000000000000008152600401611d0790613592565b60405180910390fd5b505050565b50505050565b50505050565b6000611d428473ffffffffffffffffffffffffffffffffffffffff16612193565b15611e9b578373ffffffffffffffffffffffffffffffffffffffff1663150b7a02611d6b6113f8565b8786866040518563ffffffff1660e01b8152600401611d8d9493929190613607565b6020604051808303816000875af1925050508015611dc957506040513d601f19601f82011682018060405250810190611dc69190613668565b60015b611e4b573d8060008114611df9576040519150601f19603f3d011682016040523d82523d6000602084013e611dfe565b606091505b506000815103611e43576040517f08c379a0000000000000000000000000000000000000000000000000000000008152600401611e3a90613592565b60405180910390fd5b805181602001fd5b63150b7a0260e01b7bffffffffffffffffffffffffffffffffffffffffffffffffffffffff1916817bffffffffffffffffffffffffffffffffffffffffffffffffffffffff191614915050611ea0565b600190505b949350505050565b606060006001611eb7846121b6565b01905060008167ffffffffffffffff811115611ed657611ed56127e1565b5b6040519080825280601f01601f191660200182016040528015611f085781602001600182028036833780820191505090505b509050600082602001820190505b600115611f6b578080600190039150507f3031323334353637383961626364656600000000000000000000000000000000600a86061a8153600a8581611f5f57611f5e613695565b5b04945060008503611f16575b819350505050919050565b600073ffffffffffffffffffffffffffffffffffffffff168273ffffffffffffffffffffffffffffffffffffffff1603611fe5576040517f08c379a0000000000000000000000000000000000000000000000000000000008152600401611fdc90613710565b60405180910390fd5b611fee81611c0f565b1561202e576040517f08c379a00000000000000000000000000000000000000000000000000000000081526004016120259061377c565b60405180910390fd5b61203c600083836001611d15565b61204581611c0f565b15612085576040517f08c379a000000000000000000000000000000000000000000000000000000000815260040161207c9061377c565b60405180910390fd5b6001600360008473ffffffffffffffffffffffffffffffffffffffff1673ffffffffffffffffffffffffffffffffffffffff16815260200190815260200160002060008282540192505081905550816002600083815260200190815260200160002060006101000a81548173ffffffffffffffffffffffffffffffffffffffff021916908373ffffffffffffffffffffffffffffffffffffffff160217905550808273ffffffffffffffffffffffffffffffffffffffff16600073ffffffffffffffffffffffffffffffffffffffff167fddf252ad1be2c89b69c2b068fc378daa952ba7f163c4a11628f55a4df523b3ef60405160405180910390a461218f600083836001611d1b565b5050565b6000808273ffffffffffffffffffffffffffffffffffffffff163b119050919050565b600080600090507a184f03e93ff9f4daa797ed6e38ed64bf6a1f0100000000000000008310612214577a184f03e93ff9f4daa797ed6e38ed64bf6a1f010000000000000000838161220a57612209613695565b5b0492506040810190505b6d04ee2d6d415b85acef81000000008310612251576d04ee2d6d415b85acef8100000000838161224757612246613695565b5b0492506020810190505b662386f26fc10000831061228057662386f26fc10000838161227657612275613695565b5b0492506010810190505b6305f5e10083106122a9576305f5e100838161229f5761229e613695565b5b0492506008810190505b61271083106122ce5761271083816122c4576122c3613695565b5b0492506004810190505b606483106122f157606483816122e7576122e6613695565b5b0492506002810190505b600a8310612300576001810190505b80915050919050565b6000604051905090565b600080fd5b600080fd5b60007fffffffff0000000000000000000000000000000000000000000000000000000082169050919050565b6123528161231d565b811461235d57600080fd5b50565b60008135905061236f81612349565b92915050565b60006020828403121561238b5761238a612313565b5b600061239984828501612360565b91505092915050565b60008115159050919050565b6123b7816123a2565b82525050565b60006020820190506123d260008301846123ae565b92915050565b6000819050919050565b6123eb816123d8565b81146123f657600080fd5b50565b600081359050612408816123e2565b92915050565b60006020828403121561242457612423612313565b5b6000612432848285016123f9565b91505092915050565b600081519050919050565b600082825260208201905092915050565b60005b8381101561247557808201518184015260208101905061245a565b60008484015250505050565b6000601f19601f8301169050919050565b600061249d8261243b565b6124a78185612446565b93506124b7818560208601612457565b6124c081612481565b840191505092915050565b600060208201905081810360008301526124e58184612492565b905092915050565b600073ffffffffffffffffffffffffffffffffffffffff82169050919050565b6000612518826124ed565b9050919050565b6125288161250d565b811461253357600080fd5b50565b6000813590506125458161251f565b92915050565b600080fd5b600080fd5b600080fd5b60008083601f8401126125705761256f61254b565b5b8235905067ffffffffffffffff81111561258d5761258c612550565b5b6020830191508360018202830111156125a9576125a8612555565b5b9250929050565b6000806000604084860312156125c9576125c8612313565b5b60006125d786828701612536565b935050602084013567ffffffffffffffff8111156125f8576125f7612318565b5b6126048682870161255a565b92509250509250925092565b612619816123d8565b82525050565b60006020820190506126346000830184612610565b92915050565b6126438161250d565b82525050565b600060208201905061265e600083018461263a565b92915050565b6000806040838503121561267b5761267a612313565b5b600061268985828601612536565b925050602061269a858286016123f9565b9150509250929050565b6000806000606084860312156126bd576126bc612313565b5b60006126cb86828701612536565b93505060206126dc86828701612536565b92505060406126ed868287016123f9565b9150509250925092565b600060808201905061270c600083018761263a565b612719602083018661263a565b818103604083015261272b8185612492565b905061273a60608301846123ae565b95945050505050565b60006020828403121561275957612758612313565b5b600061276784828501612536565b91505092915050565b612779816123a2565b811461278457600080fd5b50565b60008135905061279681612770565b92915050565b600080604083850312156127b3576127b2612313565b5b60006127c185828601612536565b92505060206127d285828601612787565b9150509250929050565b600080fd5b7f4e487b7100000000000000000000000000000000000000000000000000000000600052604160045260246000fd5b61281982612481565b810181811067ffffffffffffffff82111715612838576128376127e1565b5b80604052505050565b600061284b612309565b90506128578282612810565b919050565b600067ffffffffffffffff821115612877576128766127e1565b5b61288082612481565b9050602081019050919050565b82818337600083830152505050565b60006128af6128aa8461285c565b612841565b9050828152602081018484840111156128cb576128ca6127dc565b5b6128d684828561288d565b509392505050565b600082601f8301126128f3576128f261254b565b5b813561290384826020860161289c565b91505092915050565b6000806000806080858703121561292657612925612313565b5b600061293487828801612536565b945050602061294587828801612536565b9350506040612956878288016123f9565b925050606085013567ffffffffffffffff81111561297757612976612318565b5b612983878288016128de565b91505092959194509250565b600080604083850312156129a6576129a5612313565b5b60006129b485828601612536565b92505060206129c585828601612536565b9150509250929050565b7f416c7265616479207265766f6b65640000000000000000000000000000000000600082015250565b6000612a05600f83612446565b9150612a10826129cf565b602082019050919050565b60006020820190508181036000830152612a34816129f8565b9050919050565b7f4e6f7420617574686f72697a6564000000000000000000000000000000000000600082015250565b6000612a71600e83612446565b9150612a7c82612a3b565b602082019050919050565b60006020820190508181036000830152612aa081612a64565b9050919050565b7f4e487b7100000000000000000000000000000000000000000000000000000000600052602260045260246000fd5b60006002820490506001821680612aee57607f821691505b602082108103612b0157612b00612aa7565b5b50919050565b7f496e76616c696420726563697069656e74000000000000000000000000000000600082015250565b6000612b3d601183612446565b9150612b4882612b07565b602082019050919050565b60006020820190508181036000830152612b6c81612b30565b9050919050565b600081905092915050565b6000612b8a8385612b73565b9350612b9783858461288d565b82840190509392505050565b6000612bb0828486612b7e565b91508190509392505050565b7f4d6574616461746120616c726561647920757365640000000000000000000000600082015250565b6000612bf2601583612446565b9150612bfd82612bbc565b602082019050919050565b60006020820190508181036000830152612c2181612be5565b9050919050565b60008190508160005260206000209050919050565b60006020601f8301049050919050565b600082821b905092915050565b600060088302612c8a7fffffffffffffffffffffffffffffffffffffffffffffffffffffffffffffffff82612c4d565b612c948683612c4d565b95508019841693508086168417925050509392505050565b6000819050919050565b6000612cd1612ccc612cc7846123d8565b612cac565b6123d8565b9050919050565b6000819050919050565b612ceb83612cb6565b612cff612cf782612cd8565b848454612c5a565b825550505050565b600090565b612d14612d07565b612d1f818484612ce2565b505050565b5b81811015612d4357612d38600082612d0c565b600181019050612d25565b5050565b601f821115612d8857612d5981612c28565b612d6284612c3d565b81016020851015612d71578190505b612d85612d7d85612c3d565b830182612d24565b50505b505050565b600082821c905092915050565b6000612dab60001984600802612d8d565b1980831691505092915050565b6000612dc48383612d9a565b9150826002028217905092915050565b612ddd8261243b565b67ffffffffffffffff811115612df657612df56127e1565b5b612e008254612ad6565b612e0b828285612d47565b600060209050601f831160018114612e3e5760008415612e2c578287015190505b612e368582612db8565b865550612e9e565b601f198416612e4c86612c28565b60005b82811015612e7457848901518255600182019150602085019450602081019050612e4f565b86831015612e915784890151612e8d601f891682612d9a565b8355505b6001600288020188555050505b505050505050565b6000612eb28385612446565b9350612ebf83858461288d565b612ec883612481565b840190509392505050565b60006020820190508181036000830152612eee818486612ea6565b90509392505050565b7f4552433732313a20617070726f76616c20746f2063757272656e74206f776e6560008201527f7200000000000000000000000000000000000000000000000000000000000000602082015250565b6000612f53602183612446565b9150612f5e82612ef7565b604082019050919050565b60006020820190508181036000830152612f8281612f46565b9050919050565b7f4552433732313a20617070726f76652063616c6c6572206973206e6f7420746f60008201527f6b656e206f776e6572206f7220617070726f76656420666f7220616c6c000000602082015250565b6000612fe5603d83612446565b9150612ff082612f89565b604082019050919050565b6000602082019050818103600083015261301481612fd8565b9050919050565b7f4552433732313a2063616c6c6572206973206e6f7420746f6b656e206f776e6560008201527f72206f7220617070726f76656400000000000000000000000000000000000000602082015250565b6000613077602d83612446565b91506130828261301b565b604082019050919050565b600060208201905081810360008301526130a68161306a565b9050919050565b7f4552433732313a20696e76616c696420746f6b656e2049440000000000000000600082015250565b60006130e3601883612446565b91506130ee826130ad565b602082019050919050565b60006020820190508181036000830152613112816130d6565b9050919050565b7f4552433732313a2061646472657373207a65726f206973206e6f74206120766160008201527f6c6964206f776e65720000000000000000000000000000000000000000000000602082015250565b6000613175602983612446565b915061318082613119565b604082019050919050565b600060208201905081810360008301526131a481613168565b9050919050565b60006131b68261243b565b6131c08185612b73565b93506131d0818560208601612457565b80840191505092915050565b60006131e882856131ab565b91506131f482846131ab565b91508190509392505050565b7f4f776e61626c653a206e6577206f776e657220697320746865207a65726f206160008201527f6464726573730000000000000000000000000000000000000000000000000000602082015250565b600061325c602683612446565b915061326782613200565b604082019050919050565b6000602082019050818103600083015261328b8161324f565b9050919050565b7f45524337323155524953746f726167653a2055524920736574206f66206e6f6e60008201527f6578697374656e7420746f6b656e000000000000000000000000000000000000602082015250565b60006132ee602e83612446565b91506132f982613292565b604082019050919050565b6000602082019050818103600083015261331d816132e1565b9050919050565b7f4552433732313a207472616e736665722066726f6d20696e636f72726563742060008201527f6f776e6572000000000000000000000000000000000000000000000000000000602082015250565b6000613380602583612446565b915061338b82613324565b604082019050919050565b600060208201905081810360008301526133af81613373565b9050919050565b7f4552433732313a207472616e7366657220746f20746865207a65726f2061646460008201527f7265737300000000000000000000000000000000000000000000000000000000602082015250565b6000613412602483612446565b915061341d826133b6565b604082019050919050565b6000602082019050818103600083015261344181613405565b9050919050565b7f4f776e61626c653a2063616c6c6572206973206e6f7420746865206f776e6572600082015250565b600061347e602083612446565b915061348982613448565b602082019050919050565b600060208201905081810360008301526134ad81613471565b9050919050565b7f4552433732313a20617070726f766520746f2063616c6c657200000000000000600082015250565b60006134ea601983612446565b91506134f5826134b4565b602082019050919050565b60006020820190508181036000830152613519816134dd565b9050919050565b7f4552433732313a207472616e7366657220746f206e6f6e20455243373231526560008201527f63656976657220696d706c656d656e7465720000000000000000000000000000602082015250565b600061357c603283612446565b915061358782613520565b604082019050919050565b600060208201905081810360008301526135ab8161356f565b9050919050565b600081519050919050565b600082825260208201905092915050565b60006135d9826135b2565b6135e381856135bd565b93506135f3818560208601612457565b6135fc81612481565b840191505092915050565b600060808201905061361c600083018761263a565b613629602083018661263a565b6136366040830185612610565b818103606083015261364881846135ce565b905095945050505050565b60008151905061366281612349565b92915050565b60006020828403121561367e5761367d612313565b5b600061368c84828501613653565b91505092915050565b7f4e487b7100000000000000000000000000000000000000000000000000000000600052601260045260246000fd5b7f4552433732313a206d696e7420746f20746865207a65726f2061646472657373600082015250565b60006136fa602083612446565b9150613705826136c4565b602082019050919050565b60006020820190508181036000830152613729816136ed565b9050919050565b7f4552433732313a20746f6b656e20616c7265616479206d696e74656400000000600082015250565b6000613766601c83612446565b915061377182613730565b602082019050919050565b6000602082019050818103600083015261379581613759565b905091905056fea2646970667358221220f29e965c04ec288055a4ac4975a5e3d4598e7566d3e71336fe95c753eea0d62c64736f6c63430008130033",
  "linkReferences": {},
  "deployedLinkReferences": {}
}